:100000000C9435000C94D8060C94D8060C94D806A1
:100010000C94D8060C94D8060C94D8060C94D806E8
:100020000C94D8060C9461060C94D8060C94D8064F
:100030000C94D8060C94D8060C94D8060C94D806C8
:100040000C94D8060C94D8060C94D8060C94D806B8
:100050000C94D8060C94D8060C94D8060C94D806A8
:100060000C94D80601000106800011241FBECFEFBA
:10007000D8E0DEBFCDBFE4E6F0E040E017C0B591C8
:10008000A59135912591059107FD0CC0959185911C
:10009000EF01F92FE82F05900D92A217B307D9F7BA
:1000A000FE0104C01D92A217B307E1F7E936F40779
:0E00B00031F70E945F000C94A106F894FFCF78
:1000BE00CF93DF93CDB7DEB7C154D1090FB6F89405
:1000CE00DEBF0FBECDBF0E94E6030E94D3040E9486
:1000DE0055050E942A050E94FF048C8320E040E013
:1000EE0060E08AEA0E943D0440E060E080E00E9409
:1000FE0072048D83789481E089831A821E828981AD
:10010E00882F90E08230910509F4E0C2833091058A
:10011E0009F4DEC2019709F0E6C28DED90E0FC0114
:10012E008081282F81E390E0FC0180818170822BF9
:10013E008A838A81882F90E081709927892B09F410
:10014E008FC080E090E0A8ECB1E48E8B9F8BA88FDF
:10015E00B98F20E030E04AE753E46E897F89888DBD
:10016E00998D0E94D106DC01CB018A8F9B8FAC8FBB
:10017E00BD8F20E030E040E85FE36A8D7B8D8C8D93
:10018E009D8D0E94C70688232CF481E090E09F8FFE
:10019E008E8F3FC020E03FEF4FE757E46A8D7B8D97
:1001AE008C8D9D8D0E94CC0618164CF520E030E00B
:1001BE0040E251E46E897F89888D998D0E94D10627
:1001CE00DC01CB01BC01CD010E94A404DC01CB01FA
:1001DE009F8F8E8F0FC089E190E099A388A388A18D
:1001EE0099A10197F1F799A388A38E8D9F8D019701
:1001FE009F8F8E8F8E8D9F8D892B69F714C06A8D80
:10020E007B8D8C8D9D8D0E94A404DC01CB019F8F74
:10021E008E8F8E8D9F8D9BA38AA38AA19BA1019702
:10022E00F1F79BA38AA381E390E0FC0180818A838E
:10023E008A81882F90E081709927892B09F44AC210
:10024E0005C081E390E0FC0180818A838A81882F3A
:10025E0090E081709927892BA1F70E94E40540C296
:10026E008A81882F90E082709927892B09F48FC09C
:10027E0080E090E0A8ECB1E48F839887A987BA87D5
:10028E0020E030E04AE753E46F81788589859A85CE
:10029E000E94D106DC01CB018CA39DA3AEA3BFA30C
:1002AE0020E030E040E85FE36CA17DA18EA19FA12C
:1002BE000E94C70688232CF481E090E099A788A7B6
:1002CE003FC020E03FEF4FE757E46CA17DA18EA128
:1002DE009FA10E94CC0618164CF520E030E040E2BB
:1002EE0051E46F81788589859A850E94D106DC015B
:1002FE00CB01BC01CD010E94A404DC01CB0199A766
:10030E0088A70FC089E190E09BA78AA78AA59BA525
:10031E000197F1F79BA78AA788A599A5019799A799
:10032E0088A788A599A5892B69F714C06CA17DA112
:10033E008EA19FA10E94A404DC01CB0199A788A7DE
:10034E0088A599A59DA78CA78CA59DA50197F1F7CA
:10035E009DA78CA78DED90E0FC0180818A838A8118
:10036E00882F90E082709927892B09F4B5C105C0BA
:10037E008DED90E0FC0180818A838A81882F90E048
:10038E0082709927892BA1F70E94C105A9C18A8184
:10039E00882F90E084709927892B09F4EEC080E0B5
:1003AE0090E0A8ECB1E48B879C87AD87BE8720E0F8
:1003BE0030E04AE753E46B857C858D859E850E94EF
:1003CE00D106DC01CB018EA79FA7A8ABB9AB20E06D
:1003DE0030E040E85FE36EA57FA588A999A90E9449
:1003EE00C70688232CF481E090E09BAB8AAB3FC01C
:1003FE0020E03FEF4FE757E46EA57FA588A999A9A6
:10040E000E94CC0618164CF520E030E040E251E494
:10041E006B857C858D859E850E94D106DC01CB0186
:10042E00BC01CD010E94A404DC01CB019BAB8AABC5
:10043E000FC089E190E09DAB8CAB8CA99DA9019773
:10044E00F1F79DAB8CAB8AA99BA901979BAB8AABAD
:10045E008AA99BA9892B69F714C06EA57FA588A9C7
:10046E0099A90E94A404DC01CB019BAB8AAB8AA99B
:10047E009BA99FAB8EAB8EA99FA90197F1F79FAB5E
:10048E008EAB8DED90E0FC0180818A838A81882F6E
:10049E0090E084709927892B09F420C105C08DED59
:1004AE0090E0FC0180818A838A81882F90E084709D
:1004BE009927892BA1F784E890E0FC01108285E84A
:1004CE0090E0FC0110821092020190910501809142
:1004DE00040120E0492F682F81E80E943D0481E04D
:1004EE0090E0909301018093000181E80E947905CC
:1004FE001B8234C080EC90E0FC018081882374F56F
:10050E0086EC90E0FC0180818E83809100019091B9
:10051E00010188279F70892F99278B8B9091050158
:10052E008B89892B8C8B8091000190910101982FE2
:10053E0080910401292F4C89682F8E810E943D04E1
:10054E008091000190910101019690930101809399
:10055E0000018E81863911F481E08B838B81882393
:10056E0049F282E0898381E890E021E830E0F901E8
:10057E0020812260FC012083B3C08A81882F90E005
:10058E0088709927892B09F4ABC080E090E0A8EC25
:10059E00B1E48F87988BA98BBA8B20E030E04AE7C5
:1005AE0053E46F85788989899A890E94D106DC0186
:1005BE00CB0188AF99AFAAAFBBAF20E030E040E8E7
:1005CE005FE368AD79AD8AAD9BAD0E94C706882307
:1005DE002CF481E090E09DAF8CAF3FC020E03FEF68
:1005EE004FE757E468AD79AD8AAD9BAD0E94CC065E
:1005FE0018164CF520E030E040E251E46F85788922
:10060E0089899A890E94D106DC01CB01BC01CD01FA
:10061E000E94A404DC01CB019DAF8CAF0FC089E119
:10062E0090E09FAF8EAF8EAD9FAD0197F1F79FAF6C
:10063E008EAF8CAD9DAD01979DAF8CAF8CAD9DAD4A
:10064E00892B69F720C068AD79AD8AAD9BAD0E944C
:10065E00A404DC01CB019DAF8CAFCE01805C9F4F1B
:10066E002CAD3DADFC0131832083CE01805C9F4FCC
:10067E00FC01808191810197F1F79E01205C3F4F33
:10068E00F901918380838DED90E0FC0180818A8356
:10069E008A81882F90E088709927892B19F105C0DF
:1006AE008DED90E0FC0180818A838A81882F90E015
:1006BE0088709927892BA1F79091050180910401EB
:1006CE0040E0692F0E9472048D8B0AC000000BC09F
:1006DE00000009C0000007C0000005C0000003C0F4
:0A06EE00000001C00000000009CD6B
:1006F8000FC00E94B30638F00E94BA0620F0952376
:1007080011F00C94C1060C94D50611240C94AD0676
:100718000E94070670F3959FC1F3950F50E0551F8F
:10072800629FF001729FBB27F00DB11D639FAA273E
:10073800F00DB11DAA1F649F6627B00DA11D661F8D
:10074800829F2227B00DA11D621F739FB00DA11DAE
:10075800621F839FA00D611D221F749F3327A00D68
:10076800611D231F849F600D211D822F762F6A2F04
:1007780011249F5750409AF0F1F088234AF0EE0F69
:10078800FF1FBB1F661F771F881F91505040A9F796
:100798009E3F510580F00C94C1060C94AD065F3F56
:1007A800E4F3983ED4F3869577956795B795F795D2
:1007B800E7959F5FC1F7FE2B880F911D969587954A
:0407C80097F9089500
:1007CC00CF93DF93CDB7DEB782E290E0FC0180815E
:1007DC0082E290E0FC0110828BE290E02BE230E0B0
:1007EC00F90120812C7FFC01208381E290E0FC0147
:1007FC00808181E290E02FEFFC0120838AE290E07F
:10080C002AE230E0F90120812C6FFC01208382E286
:10081C0090E0FC01808182E290E0FC0110828BE28E
:10082C0090E02BE230E0F90120812C6FFC01208359
:10083C008BE290E02BE230E0F90120812370FC0187
:10084C0020838CED90E02CED30E0F9012081217FAC
:10085C00FC01208380E390E020E330E0F90120816B
:0E086C002E7FFC0120830000DF91CF910895C4
:10087A00CF93DF9300D000D0CDB7DEB789836A83E8
:10088A004B832C830E94290685E290E025E230E022
:10089A00F90120812E7FFC01208382E00E947906E3
:1008AA008A810E9479068B810E9479068C810E9436
:1008BA00790689810E94790685E290E025E230E096
:1008CA00F90120812160FC01208300000F900F9024
:0A08DA000F900F90DF91CF91089569
:1008E400CF93DF9300D000D0CDB7DEB78A836B837C
:1008F4004C8385E290E025E230E0F90120812E7FEF
:10090400FC01208383E00E9479068A810E94790693
:100914008B810E9479068C810E9479060E9446068A
:10092400898385E290E025E230E0F90120812160AD
:10093400FC01208389810F900F900F900F90DF911D
:04094400CF910895B2
:100948000E940F0688F09F5798F0B92F9927B75142
:10095800B0F0E1F0660F771F881F991F1AF0BA955B
:10096800C9F714C0B13091F00E94AC06B1E0089507
:100978000C94AC06672F782F8827B85F39F0B93FF9
:10098800CCF3869577956795B395D9F73EF490950E
:0E0998008095709561957F4F8F4F9F4F08950A
:1009A600CF93DF93CDB7DEB784E290E024E230E068
:1009B600F90120812760FC01208384E290E024E293
:1009C60030E0F9012081277FFC0120838CE490E050
:1009D6002CE430E0F90120812065FC0120838DE4C0
:1009E60090E02DE430E0F90120812160FC012083B4
:0809F6000000DF91CF9108958C
:1009FE00CF93DF930F92CDB7DEB785E290E025E27D
:100A0E0030E0F90120812E7FFC01208380E90E94D5
:100A1E0079068DEB0E9479068DEB0E94790680E0B7
:100A2E000E9479060E944606898385E290E025E2BF
:100A3E0030E0F90120812160FC01208389810F9033
:060A4E00DF91CF91089535
:100A5400CF93DF93CDB7DEB781EC90E021EC30E0AB
:100A6400F90120812861FC01208382EC90E022ECD2
:100A740030E0F90120812667FC01208385EC90E0B9
:100A840025EC30E0F9012081FC01208384EC90E026
:100A940024EC30E0F90120812766FC01208300006A
:060AA400DF91CF910895DF
:100AAA00CF93DF93CDB7DEB787E890E02FEFFC0155
:100ABA00208386E890E02FEFFC01208380E890E015
:100ACA0020E830E0F90120812C70FC0120838FE6B8
:100ADA0090E02FE630E0F90120812160FC012083BB
:080AEA000000DF91CF91089597
:100AF200CF93DF930F92CDB7DEB7898386EC90E078
:100B02002981FC012083000080EC90E0FC018081BF
:100B1200882F90E080749927892BB1F380EC90E0C4
:100B220020EC30E0F90120812064FC0120830000E8
:080B32000F90DF91CF910895AF
:100B3A00990F0008550FAA0BE0E8FEEF16161706E4
:100B4A00E807F907C0F012161306E407F50798F04C
:100B5A00621B730B840B950B39F40A2661F0232B65
:100B6A00242B252B21F408950A2609F4A140A695E1
:080B7A008FEF811D811D08951C
:100B8200CF93DF93CDB7DEB7809103018F5F809360
:100B920003018091030182958F70809304018091FB
:100BA2000301882F90E082959295907F9827807F0D
:100BB2009827809305011092010110920001000014
:060BC200DF91CF910895C0
:100BC800CF93DF93CDB7DEB7809103018150809337
:100BD80003018091030182958F70809304018091B5
:100BE8000301882F90E082959295907F9827807FC7
:100BF80098278093050110920101109200010000CE
:060C0800DF91CF91089579
:100C0E0057FD9058440F551F59F05F3F71F04795AF
:100C1E00880F97FB991F61F09F3F79F08795089594
:100C2E00121613061406551FF2CF4695F1DF08C0B3
:100C3E00161617061806991FF1CF869571056105D0
:040C4E000894089569
:100C5200CF93DF93CDB7DEB785E290E025E230E0B7
:100C6200F90120812E7FFC01208386E00E94790613
:100C720085E290E025E230E0F90120812160FC016B
:0A0C820020830000DF91CF91089558
:100C8C00CF93DF930F92CDB7DEB78EE490E02DEBD0
:100C9C00FC01208300008DE490E0FC01808188231E
:100CAC00D4F78EE490E0FC018081898389810F90D8
:060CBC00DF91CF910895C5
:100CC2001F920F920FB60F9211248F93CF93DF933F
:100CD200CDB7DEB7809102018F5F809302010000E1
:100CE200DF91CF918F910F900FBE0F901F901895AB
:100CF200CF93DF930F92CDB7DEB789838EE490E076
:100D02002981FC01208300008DE490E0FC018081B8
:0E0D12008823D4F700000F90DF91CF91089551
:100D2000092E0394000C11F4882352F0BB0F40F4F9
:100D3000BF2B11F460FF04C06F5F7F4F8F4F9F4F39
:020D4000089514
:100D4200EC010E94DD060E94DC06CE010E94DE0656
:060D5200CE010E94DA064A
:0E0D5800E894BB2766277727CB0197F908950B
:0E0D660000240A9416161706180609060895AA
:0E0D740000240A9412161306140605060895AC
:0C0D820097F99F6780E870E060E008953A
:0A0D8E000E949D0508F481E008951D
:0A0D98000E949D0508F48FEF0895F6
:080DA2000E947C030C949006F2
:060DAA009FEF80EC0895AC
:040DB0000C9400009F
:040DB4000E945D003C
:020DB80008959C
:020DBA0008959A
:020DBC00089598
:02000004008278
:030000007F19FF66
:02000004008377
:01000000FF00
:00000001FF
