:100000000C943B000C941A070C941A070C941A07D2
:100010000C941A070C941A070C941A070C94C10636
:100020000C941A070C9492060C941A070C941A0755
:100030000C941A070C941A070C941A070C941A07BC
:100040000C941A070C941A070C941A070C941A07AC
:100050000C941A070C941A070C941A070C941A079C
:100060000C941A070100010A80010A010B000E42DC
:10007000010B010D800011241FBECFEFD8E0DEBFC1
:10008000CDBFE4E6F0E040E017C0B591A591359111
:100090002591059107FD0CC095918591EF01F92FF0
:1000A000E82F05900D92A217B307D9F7FE0104C0FF
:1000B0001D92A217B307E1F7E537F40731F70E9465
:0A00C00065000C94E306F894FFCFEE
:1000CA00CF93DF9300D000D00F92CDB7DEB70E9456
:1000DA00B3030E9406050E9486050E943F040E94FF
:1000EA0032058983789480910A01882F90E08230C2
:1000FA00910509F476C08330910509F4C9C00197C6
:10010A0009F0E1C08BED90E0FC018081282F8FE29D
:10011A0090E0FC0180818170822B80930B01809199
:10012A000B01882F90E081709927892B49F081E093
:10013A000E943702882309F4BBC00E941506BEC07C
:10014A0080910B01882F90E082709927892B49F0C2
:10015A0082E00E943702882309F4ACC00E94F205AB
:10016A00ADC080910B01882F90E084709927892B6C
:10017A0049F084E00E943702882309F49DC00E9456
:10018A004C039CC080910B01882F90E088709927BE
:10019A00892B09F493C088E00E943702882309F466
:1001AA008FC00E946A018AC080910B01882F90E05B
:1001BA0084709927892BA9F084E00E94370288234A
:1001CA00B9F01092020185E890E0FC01108284E8FF
:1001DA0090E0FC01108282E80E94AA0581E08093E7
:1001EA000A0180EC90E0FC0180818823ECF601C0D2
:1001FA00000086EC90E0FC0180818A8380910C01EA
:10020A00882309F03FC081E890E021E830E0F90155
:10021A002081287FFC01208384E890E0FC01808112
:10022A008B8385E890E0FC0180818C8380910201B8
:10023A008D831092020185E890E0FC01108284E827
:10024A0090E0FC01108281E890E021E830E0F901B9
:10025A0020812260FC0120838D810E9473048C819D
:10026A000E9473048B810E9473048A810E94730422
:10027A008A81853820F081E080930C0124C0109295
:10028A000C0121C08A810E94730410920C011BC0C8
:10029A0090910201809106019817A1F481E0809360
:1002AA00030101C00000809103018823D9F70AC025
:1002BA00000009C0000007C0000005C0000003C01C
:0A02CA00000001C0000000000ECF8C
:1002D400CF93DF93CDB7DEB727970FB6F894DEBF81
:1002E4000FBECDBF81E890E021E830E0F901208124
:1002F400287FFC01208385E890E0FC01108284E8DB
:1003040090E0FC0110821092020190910901809109
:10031400080140E0692F0E94A5048A838A818138FC
:1003240009F099C08FE70E94AA051092020181E0AA
:1003340090E09093010180930001198259C080914B
:1003440000019091010188279F70892F99278B8341
:10035400909109018B81892B8C838091000190916C
:100364000101982F80910801492F6C810E94A504F6
:100374008D83809100019091010101969093010178
:10038400809300018D818E3781F5809100019091D9
:10039400010188279F70892F99278B8390910901E8
:1003A4008B81892B8C838091000190910101982F7E
:1003B40080910801492F6C810E94A5048D8380914E
:1003C4000001909101010196909301018093000135
:1003D4008D818E3719F481E089830AC08EE70E94EB
:1003E400AA058D810E94AA0503C08D810E94AA05D9
:1003F4008981882309F4A3CF83E080930A01809143
:1004040000019091010188279F70892F99278E837D
:10041400909109018E81892B8F83809100019091A5
:100424000101982F80910801492F6F810E945D0579
:10043400809306010E947706809305010E94770647
:100444008093040181E890E021E830E0F901208103
:100454002260FC012083000027960FB6F894DEBFCB
:0A0464000FBECDBFDF91CF910895C8
:10046E00CF93DF93CDB7DEB760970FB6F894DEBFAC
:10047E000FBECDBF888B80E090E0A8ECB1E48A83FC
:10048E009B83AC83BD8320E030E04AE753E46A816E
:10049E007B818C819D810E941307DC01CB018E83B1
:1004AE009F83A887B98720E030E040E85FE36E8144
:1004BE007F81888599850E94090788232CF481E025
:1004CE0090E09B878A873FC020E03FEF4FE757E4DD
:1004DE006E817F81888599850E940E0718164CF5CE
:1004EE0020E030E040E251E46A817B818C819D8185
:1004FE000E941307DC01CB01BC01CD010E94D70481
:10050E00DC01CB019B878A870FC089E190E09D8734
:10051E008C878C859D850197F1F79D878C878A85C1
:10052E009B8501979B878A878A859B85892B69F78F
:10053E0014C06E817F81888599850E94D704DC0165
:10054E00CB019B878A878A859B859F878E878E8521
:10055E009F850197F1F79F878E878BED90E0FC01C9
:10056E008081282F8FE290E0FC0180818170822BA8
:10057E008983998188898923882371F480E012C048
:10058E008BED90E0FC018081282F8FE290E0FC0142
:10059E0080818170822B8983998188898923882320
:1005AE0079F781E060960FB6F894DEBF0FBECDBF2F
:0605BE00DF91CF910895CA
:1005C4000FC00E94F50638F00E94FC0620F0952327
:1005D40011F00C9403070C94170711240C94EF06E4
:1005E4000E94380670F3959FC1F3950F50E0551F94
:1005F400629FF001729FBB27F00DB11D639FAA2774
:10060400F00DB11DAA1F649F6627B00DA11D661FC2
:10061400829F2227B00DA11D621F739FB00DA11DE3
:10062400621F839FA00D611D221F749F3327A00D9D
:10063400611D231F849F600D211D822F762F6A2F39
:1006440011249F5750409AF0F1F088234AF0EE0F9E
:10065400FF1FBB1F661F771F881F91505040A9F7CB
:100664009E3F510580F00C9403070C94EF065F3F06
:10067400E4F3983ED4F3869577956795B795F79507
:10068400E7959F5FC1F7FE2B880F911D969587957F
:0406940097F9089535
:10069800CF93DF9300D0CDB7DEB781E890E021E8B3
:1006A80030E0F9012081287FFC01208385E890E073
:1006B800FC01108284E890E0FC0110821092020193
:1006C800909109018091080120E0492F682F81E865
:1006D8000E940A0481E090E0909301018093000158
:1006E80081E80E94AA05198225C080EC90E0FC01EF
:1006F80080818823FCF486EC90E0FC0180818A8369
:100708008A810E9473048A818E37A1F4000080ECEC
:1007180090E0FC0180818823D4F786EC90E0FC010E
:1007280080818A838A810E9473048A818E3711F4BA
:1007380081E0898389818823C1F282E080930A015C
:1007480081E890E021E830E0F90120812260FC0195
:0E075800208300000F900F90DF91CF91089545
:10076600CF93DF93CDB7DEB782E290E0FC018081C4
:1007760082E290E0FC0110828BE290E02BE230E016
:10078600F90120812C7FFC01208381E290E0FC01AD
:10079600808181E290E02FEFFC0120838AE290E0E5
:1007A6002AE230E0F90120812C6FFC01208382E2ED
:1007B60090E0FC01808182E290E0FC0110828BE2F5
:1007C60090E02BE230E0F90120812C6FFC012083C0
:1007D6008BE290E02BE230E0F90120812370FC01EE
:1007E60020838CED90E02CED30E0F9012081217F13
:1007F600FC01208380E390E020E330E0F9012081D2
:0E0806002E7FFC0120830000DF91CF9108952A
:10081400CF93DF9300D000D0CDB7DEB789836A834E
:100824004B832C830E945A0685E290E025E230E057
:10083400F90120812E7FFC01208382E00E94AA0618
:100844008A810E94AA068B810E94AA068C810E943A
:10085400AA0689810E94AA0685E290E025E230E09A
:10086400F90120812160FC01208300000F900F908A
:0A0874000F900F90DF91CF910895CF
:10087E00CF93DF93CDB7DEB78DE290E02DE230E07F
:10088E00F90120812260FC01208381EC90E021ECB3
:10089E0030E0F90120812861FC01208382EC90E098
:1008AE0022EC30E0F90120812667FC01208385ECE3
:1008BE0090E025EC30E0F9012081FC01208384ECEE
:1008CE0090E024EC30E0F90120812766FC012083C2
:0808DE000000DF91CF910895A5
:1008E600CF93DF9300D00F92CDB7DEB78B83809185
:1008F60000019091010188279F70892F992789838C
:10090600909109018981892B8A83809100019091B8
:100916000101982F80910801292F4A81682F8B8128
:100926000E940A0480910001909101010196909322
:1009360001018093000100000F900F900F90DF914E
:04094600CF910895B0
:10094A00CF93DF9300D000D0CDB7DEB78A836B8315
:10095A004C8385E290E025E230E0F90120812E7F88
:10096A00FC01208383E00E94AA068A810E94AA06CB
:10097A008B810E94AA068C810E94AA060E94770691
:10098A00898385E290E025E230E0F9012081216047
:10099A00FC01208389810F900F900F900F90DF91B7
:0409AA00CF9108954C
:1009AE000E94400688F09F5798F0B92F9927B751AB
:1009BE00B0F0E1F0660F771F881F991F1AF0BA95F5
:1009CE00C9F714C0B13091F00E94EE06B1E008955F
:1009DE000C94EE06672F782F8827B85F39F0B93F51
:1009EE00CCF3869577956795B395D9F73EF49095A8
:0E09FE008095709561957F4F8F4F9F4F0895A4
:100A0C00CF93DF93CDB7DEB784E290E024E230E001
:100A1C00F90120812760FC01208384E290E024E22C
:100A2C0030E0F9012081277FFC0120838CE490E0E9
:100A3C002CE430E0F90120812065FC0120838DE459
:100A4C0090E02DE430E0F90120812160FC0120834D
:080A5C000000DF91CF91089525
:100A6400CF93DF930F92CDB7DEB785E290E025E216
:100A740030E0F90120812E7FFC01208380E90E946F
:100A8400AA068DEB0E94AA068DEB0E94AA0680E0BE
:100A94000E94AA060E947706898385E290E025E2F7
:100AA40030E0F90120812160FC01208389810F90CD
:060AB400DF91CF910895CF
:100ABA00CF93DF9300D000D0CDB7DEB78A836B83A4
:100ACA004C8385E290E025E230E0F90120812E7F17
:100ADA00FC01208383E00E94AA068A810E94AA065A
:100AEA008B810E94AA068C810E94AA060E94770620
:100AFA00898389810F900F900F900F90DF91CF918A
:020B0A0008954C
:100B0C00CF93DF93CDB7DEB787E890E02FEFFC01F2
:100B1C00208386E890E02FEFFC01208380E890E0B2
:100B2C0020E830E0F90120812C70FC0120838FE655
:100B3C0090E02FE630E0F90120812160FC01208358
:080B4C000000DF91CF91089534
:100B5400CF93DF930F92CDB7DEB7898386EC90E015
:100B64002981FC012083000080EC90E0FC0180815D
:100B7400882F90E080749927892BB1F380EC90E062
:100B840020EC30E0F90120812064FC012083000086
:080B94000F90DF91CF9108954D
:100B9C00990F0008550FAA0BE0E8FEEF1616170682
:100BAC00E807F907C0F012161306E407F50798F0EA
:100BBC00621B730B840B950B39F40A2661F0232B03
:100BCC00242B252B21F408950A2609F4A140A6957F
:080BDC008FEF811D811D0895BA
:100BE400CF93DF93CDB7DEB7809107018F5F8093FA
:100BF40007018091070182958F708093080180918D
:100C04000701882F90E082959295907F9827807FA6
:100C140098278093090110920101109200010000AD
:060C2400DF91CF9108955D
:100C2A00CF93DF93CDB7DEB78091070181508093D0
:100C3A0007018091070182958F7080930801809146
:100C4A000701882F90E082959295907F9827807F60
:100C5A009827809309011092010110920001000067
:060C6A00DF91CF91089517
:100C700057FD9058440F551F59F05F3F71F047954D
:100C8000880F97FB991F61F09F3F79F08795089532
:100C9000121613061406551FF2CF4695F1DF08C051
:100CA000161617061806991FF1CF8695710561056E
:040CB0000894089507
:100CB400CF93DF93CDB7DEB785E290E025E230E055
:100CC400F90120812E7FFC01208386E00E94AA0680
:100CD40085E290E025E230E0F90120812160FC0109
:0A0CE40020830000DF91CF910895F6
:100CEE00CF93DF930F92CDB7DEB78EE490E02DEB6E
:100CFE00FC01208300008DE490E0FC0180818823BC
:100D0E00D4F78EE490E0FC018081898389810F9075
:060D1E00DF91CF91089562
:100D24001F920F920FB60F9211248F93CF93DF93DC
:100D3400CDB7DEB7809102018F5F8093020100007E
:100D4400DF91CF918F910F900FBE0F901F90189548
:100D5400CF93DF930F92CDB7DEB789838EE490E013
:100D64002981FC01208300008DE490E0FC01808156
:0E0D74008823D4F700000F90DF91CF910895EF
:100D82001F920F920FB60F921124CF93DF93CDB71C
:100D9200DEB70000DF91CF910F900FBE0F901F9032
:020DA2001895A2
:100DA400092E0394000C11F4882352F0BB0F40F475
:100DB400BF2B11F460FF04C06F5F7F4F8F4F9F4FB5
:020DC400089590
:100DC600EC010E941F070E941E07CE010E94200709
:060DD600CE010E941C0783
:0E0DDC00E894BB2766277727CB0197F9089587
:0E0DEA0000240A941616170618060906089526
:0E0DF80000240A941216130614060506089528
:0C0E060097F99F6780E870E060E00895B5
:0A0E12000E94CE0508F481E0089567
:0A0E1C000E94CE0508F48FEF089540
:080E26000E94E2020C94D206C6
:060E2E009FEF80EC089527
:040E34000C9400001A
:040E38000E946300B1
:020E3C00089517
:020E3E00089515
:020E4000089513
:010E420001AE
:02000004008278
:030000007F19FF66
:02000004008377
:01000000FF00
:00000001FF
