:100000000C943B000C9461080C9461080C946108FA
:100010000C9461080C9461080C9461080C94BF0660
:100020000C9461080C94EA070C9461080C94610824
:100030000C9461080C9461080C9461080C9461089C
:100040000C9461080C9461080C9461080C9461088C
:100050000C9461080C9461080C9461080C9461087C
:100060000C9461080100011080011001110010D0F2
:1000700001110115800011241FBECFEFD8E0DEBFB3
:10008000CDBFE4E6F0E040E017C0B591A591359111
:100090002591059107FD0CC095918591EF01F92FF0
:1000A000E82F05900D92A217B307D9F7FE0104C0FF
:1000B0001D92A217B307E1F7E537F40731F70E9465
:0A00C00065000C942A08F894FFCFA5
:1000CA00CF93DF93CDB7DEB727970FB6F894DEBF8D
:1000DA000FBECDBF0E94E3040E943F060E94E706BE
:1000EA000E943A050E946B06898380E00E9483047D
:1000FA0083E00E94830483E20E94830484E20E94D4
:10010A008304789480911001882F90E082309105C1
:10011A0009F476C08330910509F4E7C0019709F024
:10012A0034C18BED90E0FC018081282F8FE290E0B2
:10013A00FC0180818170822B8093110180911101D1
:10014A00882F90E081709927892B49F081E00E94DD
:10015A00A502882309F40CC10E9452070FC180919D
:10016A001101882F90E082709927892B49F082E04B
:10017A000E94A502882309F4FDC00E942F07FEC031
:10018A0080911101882F90E084709927892B49F07A
:10019A0084E00E94A502882309F4EEC00E94BA03F3
:1001AA00EDC080911101882F90E088709927892BE2
:1001BA0009F4E4C088E00E94A502882309F4E0C09B
:1001CA000E94CC01DBC080911101882F90E08470DD
:1001DA009927892BA9F084E00E94A5028823B9F007
:1001EA001092080185E890E0FC01108284E890E012
:1001FA00FC01108282E80E94CF0781E080931001FF
:10020A0080EC90E0FC0180818823ECF601C00000BC
:10021A0086EC90E0FC0180818A8380911201882318
:10022A0009F04DC081E890E021E830E0F901208131
:10023A00287FFC01208384E890E0FC0180818B8385
:10024A0085E890E0FC0180818C83809108018D8390
:10025A001092080185E890E0FC01108284E890E0A1
:10026A00FC01108281E890E021E830E0F901208168
:10027A002260FC0120838D810E94AC058C810E9442
:10028A00AC058B810E94AC058A810E94AC058A81EB
:10029A00853890F081E0809312018A81823921F4B5
:1002AA0081E0809313016EC08A81833909F06AC0A4
:1002BA0081E08093140166C01092120163C08A81A2
:1002CA000E94AC051092120180911301882321F03B
:1002DA008A810E94830456C080911401882309F4FC
:1002EA0051C08A810E9421044DC0909108018091D9
:1002FA000C01981709F048C081E0809309018FE644
:10030A0090E02FE630E0F90120812260FC01208391
:10031A0001C00000809109018823D9F70E94B4071F
:10032A008E838E810E94CF078E81853830F00E949D
:10033A00B4078F838F810E94CF070E94B4078093EE
:10034A000C010E94B40780930B010E94B4078093AA
:10035A000A011092080189E890E020910B01FC0142
:10036A00208388E890E020910A01FC0120830CC0D8
:10037A0000000BC0000009C0000007C0000005C053
:0E038A00000003C0000001C000000000BBCE58
:10039800CF93DF93CDB7DEB727970FB6F894DEBFBC
:1003A8000FBECDBF81E890E021E830E0F90120815F
:1003B800287FFC01208385E890E0FC01108284E816
:1003C80090E0FC0110821092080190910F01809139
:1003D8000E0140E0692F0E94DE058A838A818138F8
:1003E80009F0A5C08FE70E94CF071092080181E0AD
:1003F80090E09093070180930601198259C080917B
:1004080006019091070188279F70892F99278B8370
:1004180090910F018B81892B8C838091060190919B
:100428000701982F80910E01492F6C810E94DE05EB
:100438008D838091060190910701019690930701A1
:10044800809306018D818E3781F580910601909108
:10045800070188279F70892F99278B8390910F0117
:100468008B81892B8C838091060190910701982FAD
:1004780080910E01492F6C810E94DE058D83809149
:100488000601909107010196909307018093060158
:100498008D818E3719F481E089830AC08EE70E9426
:1004A800CF078D810E94CF0703C08D810E94CF079F
:1004B8008981882309F4A3CF83E080931001809178
:1004C80006019091070188279F70892F99278E83AD
:1004D80090910F018E81892B8F83809106019091D5
:1004E8000701982F80910E01492F6F810E9496066F
:1004F80080930C010E94B40780930B010E94B407FB
:1005080080930A0189E890E020910B01FC01208387
:1005180088E890E020910A01FC01208381E890E0BE
:1005280021E830E0F90120812260FC0120830000ED
:1005380027960FB6F894DEBF0FBECDBFDF91CF91DF
:02054800089514
:10054A00CF93DF93CDB7DEB760970FB6F894DEBFCF
:10055A000FBECDBF888B80E090E0A8ECB1E48A831F
:10056A009B83AC83BD8320E030E04AE753E46A8191
:10057A007B818C819D810E945A08DC01CB018E838C
:10058A009F83A887B98720E030E040E85FE36E8167
:10059A007F81888599850E94500888232CF481E000
:1005AA0090E09B878A873FC020E03FEF4FE757E400
:1005BA006E817F81888599850E94550818164CF5A9
:1005CA0020E030E040E251E46A817B818C819D81A8
:1005DA000E945A08DC01CB01BC01CD010E94100621
:1005EA00DC01CB019B878A870FC089E190E09D8758
:1005FA008C878C859D850197F1F79D878C878A85E5
:10060A009B8501979B878A878A859B85892B69F7B2
:10061A0014C06E817F81888599850E941006DC014D
:10062A00CB019B878A878A859B859F878E878E8544
:10063A009F850197F1F79F878E878BED90E0FC01EC
:10064A008081282F8FE290E0FC0180818170822BCB
:10065A008983998188898923882371F480E012C06B
:10066A008BED90E0FC018081282F8FE290E0FC0165
:10067A0080818170822B8983998188898923882343
:10068A0079F781E060960FB6F894DEBF0FBECDBF52
:06069A00DF91CF910895ED
:1006A0000FC00E943C0838F00E94430820F09523B8
:1006B00011F00C944A080C945E0811240C9436082E
:1006C0000E94750770F3959FC1F3950F50E0551F79
:1006D000629FF001729FBB27F00DB11D639FAA2797
:1006E000F00DB11DAA1F649F6627B00DA11D661FE6
:1006F000829F2227B00DA11D621F739FB00DA11D07
:10070000621F839FA00D611D221F749F3327A00DC0
:10071000611D231F849F600D211D822F762F6A2F5C
:1007200011249F5750409AF0F1F088234AF0EE0FC1
:10073000FF1FBB1F661F771F881F91505040A9F7EE
:100740009E3F510580F00C944A080C9436085F3F98
:10075000E4F3983ED4F3869577956795B795F7952A
:10076000E7959F5FC1F7FE2B880F911D96958795A2
:0407700097F9089558
:10077400CF93DF9300D0CDB7DEB781E890E021E8D6
:1007840030E0F9012081287FFC01208385E890E096
:10079400FC01108284E890E0FC01108210920801B0
:1007A40090910F0180910E0120E0492F682F81E87C
:1007B4000E94770581E090E0909307018093060101
:1007C40081E80E94CF07198225C080EC90E0FC01EB
:1007D40080818823FCF486EC90E0FC0180818A838C
:1007E4008A810E94AC058A818E37A1F4000080ECD6
:1007F40090E0FC0180818823D4F786EC90E0FC0132
:1008040080818A838A810E94AC058A818E3711F4A3
:1008140081E0898389818823C1F282E08093100179
:1008240081E890E021E830E0F90120812260FC01B8
:0E083400208300000F900F90DF91CF91089568
:10084200CF93DF9300D000D0CDB7DEB78C838C81FD
:1008520086958695869589839C818981292F281B77
:10086200822F8A838A81282F30E081E090E002C0C3
:10087200880F991F2A95E2F78B838981882F90E050
:100882002981222F30E020503F4FF9012081322F61
:100892002B812095232380509F4FFC01208382E2ED
:1008A20090E02981222F30E020503F4FF901208132
:1008B200FC0120838BE290E02BE230E0F901208101
:1008C200622F2981222F30E0A9014E5F5F4F21E084
:1008D20030E002C0220F331F4A95E2F7262BFC01BB
:1008E20020838BE290E02BE230E0F901208123703B
:1008F200FC01208300000F900F900F900F90DF916A
:04090200CF910895F4
:10090600CF93DF9300D000D0CDB7DEB78C838C8138
:1009160086958695869589839C818981292F281BB2
:10092600822F8A838A81282F30E081E090E002C0FE
:10093600880F991F2A95E2F78B838981882F90E08B
:100946002981222F30E020503F4FF90130812B8141
:10095600232B80509F4FFC01208382E290E0298167
:10096600222F30E020503F4FF9012081FC012083E7
:100976008BE290E02BE230E0F9012081622F2981A1
:10098600222F30E0A9014E5F5F4F21E030E002C028
:10099600220F331F4A95E2F7262BFC0120838BE2B8
:1009A60090E02BE230E0F90120812370FC012083E6
:1009B60000000F900F900F900F90DF91CF91089548
:1009C600CF93DF93CDB7DEB782E290E0FC01808162
:1009D60082E290E0FC0110828BE290E02BE230E0B4
:1009E600F90120812C7FFC01208381E290E0FC014B
:1009F600808181E290E02FEFFC0120838AE290E083
:100A06002AE230E0F90120812C6FFC01208382E28A
:100A160090E0FC01808182E290E0FC0110828BE292
:100A260090E02BE230E0F90120812C6FFC0120835D
:100A36008BE290E02BE230E0F90120812370FC018B
:100A460020838CED90E02CED30E0F9012081217FB0
:100A5600FC01208380E390E020E330E0F90120816F
:0E0A66002E7FFC0120830000DF91CF910895C8
:100A7400CF93DF93CDB7DEB784E690E024E630E091
:100A8400F90120812D7FFC0120838DE290E02DE28D
:100A940030E0F90120812260FC01208385EC90E0A4
:100AA40025EC30E0F9012081FC01208384EC90E006
:100AB40024EC30E0F90120812766FC01208381ECDD
:100AC40090E021EC30E0F90120812861FC012083D1
:100AD40082EC90E022EC30E0F90120812663FC01F5
:0A0AE40020830000DF91CF910895F8
:100AEE00CF93DF9300D000D0CDB7DEB789836A8372
:100AFE004B832C830E94970785E290E025E230E03D
:100B0E00F90120812E7FFC01208382E00E940208E1
:100B1E008A810E9402088B810E9402088C810E94A9
:100B2E00020889810E94020885E290E025E230E009
:100B3E00F90120812160FC01208300000F900F90AD
:0A0B4E000F900F90DF91CF910895F2
:100B5800CF93DF9300D00F92CDB7DEB78B83809110
:100B680006019091070188279F70892F992789830B
:100B780090910F018981892B8A8380910601909138
:100B88000701982F80910E01292F4A81682F8B81A8
:100B98000E94770580910601909107010196909334
:100BA80007018093060100000F900F900F90DF91CE
:040BB800CF9108953C
:100BBC00CF93DF9300D000D0CDB7DEB78A836B83A1
:100BCC004C8385E290E025E230E0F90120812E7F14
:100BDC00FC01208383E00E9402088A810E940208A3
:100BEC008B810E9402088C810E9402080E94B4072B
:100BFC00898385E290E025E230E0F90120812160D3
:100C0C00FC01208389810F900F900F900F90DF9142
:040C1C00CF910895D7
:100C20000E947D0788F09F5798F0B92F9927B751F8
:100C3000B0F0E1F0660F771F881F991F1AF0BA9580
:100C4000C9F714C0B13091F00E943508B1E00895A1
:100C50000C943508672F782F8827B85F39F0B93F93
:100C6000CCF3869577956795B395D9F73EF4909533
:0E0C70008095709561957F4F8F4F9F4F08952F
:100C7E00CF93DF93CDB7DEB784E290E024E230E08D
:100C8E00F90120812760FC01208384E290E024E2B8
:100C9E0030E0F9012081277FFC0120838CE490E075
:100CAE002CE430E0F90120812065FC0120838DE4E5
:100CBE0090E02DE430E0F90120812160FC012083D9
:080CCE000000DF91CF910895B1
:100CD600CF93DF930F92CDB7DEB785E290E025E2A2
:100CE60030E0F90120812E7FFC01208380E90E94FB
:100CF60002088DEB0E9402088DEB0E94020880E03C
:100D06000E9402080E94B407898385E290E025E2EA
:100D160030E0F90120812160FC01208389810F9058
:060D2600DF91CF9108955A
:100D2C00CF93DF9300D000D0CDB7DEB78A836B832F
:100D3C004C8385E290E025E230E0F90120812E7FA2
:100D4C00FC01208383E00E9402088A810E94020831
:100D5C008B810E9402088C810E9402080E94B407B9
:100D6C00898389810F900F900F900F90DF91CF9115
:020D7C000895D8
:100D7E001F920F920FB60F9211242F933F938F93C2
:100D8E009F93EF93FF93CF93DF93CDB7DEB7109280
:100D9E0009018FE690E02FE630E0F90120812D7FEA
:100DAE00FC0120830000DF91CF91FF91EF919F9185
:100DBE008F913F912F910F900FBE0F901F9018950E
:100DCE00CF93DF93CDB7DEB787E890E02FEFFC012E
:100DDE00208386E890E02FEFFC01208380E890E0EE
:100DEE0020E830E0F90120812C70FC0120838FE691
:100DFE0090E02FE630E0F90120812160FC01208394
:080E0E000000DF91CF9108956F
:100E1600990F0008550FAA0BE0E8FEEF1616170605
:100E2600E807F907C0F012161306E407F50798F06D
:100E3600621B730B840B950B39F40A2661F0232B86
:100E4600242B252B21F408950A2609F4A140A69502
:080E56008FEF811D811D08953D
:100E5E00CF93DF93CDB7DEB780910D018F5F809377
:100E6E000D0180910D0182958F7080930E018091FE
:100E7E000D01882F90E082959295907F9827807F24
:100E8E00982780930F01109207011092060100001F
:060E9E00DF91CF910895E1
:100EA400CF93DF93CDB7DEB780910D01815080934E
:100EB4000D0180910D0182958F7080930E018091B8
:100EC4000D01882F90E082959295907F9827807FDE
:100ED400982780930F0110920701109206010000D9
:060EE400DF91CF9108959B
:100EEA0057FD9058440F551F59F05F3F71F04795D1
:100EFA00880F97FB991F61F09F3F79F087950895B6
:100F0A00121613061406551FF2CF4695F1DF08C0D4
:100F1A00161617061806991FF1CF869571056105F1
:040F2A00089408958A
:100F2E00CF93DF93CDB7DEB785E290E025E230E0D8
:100F3E00F90120812E7FFC01208386E00E940208A9
:100F4E0085E290E025E230E0F90120812160FC018C
:0A0F5E0020830000DF91CF91089579
:100F6800CF93DF930F92CDB7DEB78EE490E02DEBF1
:100F7800FC01208300008DE490E0FC01808188233F
:100F8800D4F78EE490E0FC018081898389810F90F9
:060F9800DF91CF910895E6
:100F9E00CF93DF930F92CDB7DEB78983000080EC3D
:100FAE0090E0FC018081882F90E080729927892B38
:100FBE00B1F386EC90E02981FC01208300000F90B4
:060FCE00DF91CF910895B0
:100FD4001F920F920FB60F9211248F93CF93DF932A
:100FE400CDB7DEB7809108018F5F809308010000C0
:100FF400DF91CF918F910F900FBE0F901F90189596
:10100400CF93DF930F92CDB7DEB789838EE490E060
:101014002981FC01208300008DE490E0FC018081A3
:0E1024008823D4F700000F90DF91CF9108953C
:10103200092E0394000C11F4882352F0BB0F40F4E4
:10104200BF2B11F460FF04C06F5F7F4F8F4F9F4F24
:021052000895FF
:10105400EC010E9466080E946508CE010E946708A0
:06106400CE010E946308AA
:0E106A00E894BB2766277727CB0197F90895F6
:0E10780000240A941616170618060906089595
:0E10860000240A941216130614060506089597
:0C10940097F99F6780E870E060E0089525
:0A10A0000E940B0708F481E0089598
:0A10AA000E940B0708F48FEF089571
:0810B4000E9450030C9419087E
:0610BC009FEF80EC089597
:0410C2000C9400008A
:0410C6000E94630021
:0210CA00089587
:0210CC00089585
:0210CE00089583
:0110D000011E
:02000004008278
:03000000EF19FFF6
:02000004008377
:01000000FF00
:00000001FF
